:100000000C9458000C9480000C9480000C94800098
:100010000C9480000C9480000C9480000C94800060
:100020000C9480000C9480000C9480000C94CD0201
:100030000C9480000C9480000C9480000C94800040
:100040000C942B020C9480000C949B020C9475026F
:100050000C9480000C9480000C9480000C94800020
:100060000C9480000C948000000000002500280003
:100070002B00040404040404040402020202020229
:10008000030303030303010204081020408001025C
:1000900004081020010204081020000000080002DB
:1000A0000100000304070000000000000000C90375
:1000B00011241FBECFEFD8E0DEBFCDBF11E0A0E01E
:1000C000B1E0EAE4F8E002C005900D92A231B10778
:1000D000D9F721E0A2E1B1E001C01D92AF3DB20726
:1000E000E1F710E0C8E5D0E004C02197FE010E94CE
:1000F0001804C735D107C9F70E9431030C942304B3
:100100000C940000CF92DF92EF92FF920F931F9317
:10011000CF93DF936C017A018B01C0E0D0E0CE1564
:10012000DF0589F0D8016D918D01D601ED91FC912B
:100130000190F081E02DC6010995892B11F47E0113
:1001400002C02196ECCFC701DF91CF911F910F9193
:10015000FF90EF90DF90CF900895089580E090E0B9
:100160000895FC01538D448D252F30E0842F90E0BD
:10017000821B930B541710F0CF96089501970895A2
:10018000FC01918D828D981761F0828DDF01A80F9F
:10019000B11D5D968C91928D9F5F9F73928F90E0C1
:1001A00008958FEF9FEF0895FC01918D828D981730
:1001B00031F0828DE80FF11D858D90E008958FEF6D
:1001C0009FEF0895FC01918D228D892F90E0805C36
:1001D0009F4F821B91098F739927089582E491E0C4
:1001E0000E94E20021E0892B09F420E0822F08958B
:1001F000FC01848DDF01A80FB11DA35ABF4F2C91C4
:10020000848D90E001968F739927848FA689B78992
:100210002C93A089B1898C9180648C93938D848D6B
:10022000981306C00288F389E02D80818F7D80833A
:100230000895EF92FF920F931F93CF93DF93EC01FA
:1002400081E0888F9B8D8C8D981305C0E889F98992
:10025000808185FD24C0F62E0B8D10E00F5F1F4FAF
:100260000F731127E02E8C8DE8120CC00FB607FC1F
:10027000FACFE889F989808185FFF5CFCE010E9408
:10028000F800F1CF8B8DFE01E80FF11DE35AFF4F0F
:10029000F0820B8FEA89FB898081806207C0EE893A
:1002A000FF896083E889F98980818064808381E0A7
:1002B00090E0DF91CF911F910F91FF90EF90089503
:1002C000CF93DF93EC01888D8823C9F0EA89FB89FD
:1002D000808185FD05C0A889B9898C9186FD0FC0F4
:1002E0000FB607FCF5CF808185FFF2CFA889B989C9
:1002F0008C9185FFEDCFCE010E94F800E7CFDF9112
:10030000CF91089580E090E0892B29F00E94EE00C3
:1003100081110C940000089590E0FC01E656FF4F17
:100320003491FC01EA57FF4F2491FC01EE58FF4F36
:10033000E491EE2309F43BC0332339F1333091F0DB
:1003400038F43130A9F0323001F584B58F7D12C018
:10035000373091F03830A1F03430B9F4809180001A
:100360008F7D03C0809180008F77809380000DC0C7
:1003700084B58F7784BD09C08091B0008F7703C0AA
:100380008091B0008F7D8093B000F0E0EE0FFF1FF2
:10039000E859FF4FA591B4918FB7F894EC91611192
:1003A00003C020952E2301C02E2B2C938FBF0895C0
:1003B0008F929F92AF92BF920F931F93CF93DF9331
:1003C000CDB7DEB7A1970FB6F894DEBF0FBECDBF95
:1003D00019A2423008F44AE08E010F5D1F4F842EAF
:1003E000912CA12CB12CA50194010E94F603E62FBB
:1003F000B901CA0101501109EA3014F4E05D01C0ED
:10040000E95CD801EC93232B242B252B61F70115F4
:10041000110571F0F80101900020E9F73197AF0163
:10042000401B510BB80182E491E00E94820002C09F
:1004300080E090E0A1960FB6F894DEBF0FBECDBF6E
:10044000DF91CF911F910F91BF90AF909F908F90B0
:1004500008950E941E041F920F920FB60F9211244E
:100460002F933F938F939F93AF93BF9380913E01C0
:1004700090913F01A0914001B091410130913D0127
:1004800023E0230F2D3720F40196A11DB11D05C0D7
:1004900026E8230F0296A11DB11D20933D018093F4
:1004A0003E0190933F01A0934001B09341018091A0
:1004B000390190913A01A0913B01B0913C01019624
:1004C000A11DB11D8093390190933A01A0933B0186
:1004D000B0933C01BF91AF919F918F913F912F912C
:1004E0000F900FBE0F901F9018951F920F920FB68E
:1004F0000F9211242F933F934F935F936F937F93AA
:100500008F939F93AF93BF93EF93FF9382E491E018
:100510000E94F800FF91EF91BF91AF919F918F9151
:100520007F916F915F914F913F912F910F900FBEEF
:100530000F901F9018951F920F920FB60F921124D3
:100540002F938F939F93EF93FF93E0915201F0913C
:1005500053018081E0915801F091590182FD12C050
:10056000908180915B018F5F8F7320915C01821776
:1005700051F0E0915B01F0E0EE5BFE4F958F8093D0
:100580005B0101C08081FF91EF919F918F912F912D
:100590000F900FBE0F901F9018951F920F920FB6DD
:1005A0000F9211242F933F938F939F93EF93FF9379
:1005B0008091360187FF05C010928500109284005B
:1005C00005C08091360187FD80913601809136010A
:1005D0008F5F809336018091360187FF20C0809124
:1005E00036018C30E4F420918400309185008091B4
:1005F0003601082E000C990BFC01EE0FFF1F8E0F29
:100600009F1FFC01EE5EFE4F81819281820F931F3E
:1006100090938900809388008091360117C0809163
:10062000840090918500049680349C4918F480E4FD
:100630009CE905C080918400909185000496909378
:100640008900809388008FEF80933601FF91EF91AE
:100650009F918F913F912F910F900FBE0F901F9000
:100660001895789484B5826084BD84B5816084BD1A
:1006700085B5826085BD85B5816085BD80916E0040
:10068000816080936E001092810080918100826071
:1006900080938100809181008160809381008091AE
:1006A00080008160809380008091B100846080939D
:1006B000B1008091B00081608093B00080917A0099
:1006C000846080937A0080917A00826080937A00BF
:1006D00080917A00816080937A0080917A008068AE
:1006E00080937A001092C100E0915201F091530181
:1006F00082E08083E0914E01F0914F011082E09101
:100700005001F09151018FEC808310925A01E091D9
:100710005601F091570186E08083E0915401F091F9
:100720005501808180618083E0915401F0915501F1
:10073000808188608083E0915401F091550180812F
:1007400080688083E0915401F091550180818F7D14
:10075000808382E491E00E94E2001816190644F4B6
:1007600082E491E00E94C0009093380180933701A9
:100770006091370170913801693C71053CF0072E9A
:10078000000C880B990B4AE00E94D8010E9482015C
:10079000E0CFE2E4F1E01382128288EE93E0A0E081
:1007A000B0E084839583A683B78384E091E091834E
:1007B000808385EC90E09587848784EC90E0978730
:1007C000868780EC90E0918B808B81EC90E0938B1E
:1007D000828B82EC90E0958B848B86EC90E0978BFB
:1007E000868B118E128E138E148E0895A1E21A2E0E
:1007F000AA1BBB1BFD010DC0AA1FBB1FEE1FFF1FC5
:10080000A217B307E407F50720F0A21BB30BE40B14
:10081000F50B661F771F881F991F1A9469F760955B
:100820007095809590959B01AC01BD01CF01089515
:10083000EE0FFF1F0590F491E02D099481E090E008
:0A084000F8940C942304F894FFCF01
:10084A000000000019018200B1006001E200C0004E
:02085A00D400C8
:00000001FF
